{
  "_format": "hh-sol-artifact-1",
  "contractName": "MiniDAO",
  "sourceName": "contracts/MiniDAO.sol",
  "abi": [
    {
      "inputs": [],
      "stateMutability": "nonpayable",
      "type": "constructor"
    },
    {
      "inputs": [],
      "name": "AccessControlBadConfirmation",
      "type": "error"
    },
    {
      "inputs": [
        {
          "internalType": "address",
          "name": "account",
          "type": "address"
        },
        {
          "internalType": "bytes32",
          "name": "neededRole",
          "type": "bytes32"
        }
      ],
      "name": "AccessControlUnauthorizedAccount",
      "type": "error"
    },
    {
      "anonymous": false,
      "inputs": [
        {
          "indexed": true,
          "internalType": "address",
          "name": "member",
          "type": "address"
        }
      ],
      "name": "MemberRegistered",
      "type": "event"
    },
    {
      "anonymous": false,
      "inputs": [
        {
          "indexed": true,
          "internalType": "uint256",
          "name": "proposalId",
          "type": "uint256"
        },
        {
          "indexed": false,
          "internalType": "string",
          "name": "title",
          "type": "string"
        },
        {
          "indexed": false,
          "internalType": "string",
          "name": "description",
          "type": "string"
        },
        {
          "indexed": true,
          "internalType": "address",
          "name": "proposer",
          "type": "address"
        }
      ],
      "name": "ProposalCreated",
      "type": "event"
    },
    {
      "anonymous": false,
      "inputs": [
        {
          "indexed": true,
          "internalType": "uint256",
          "name": "proposalId",
          "type": "uint256"
        }
      ],
      "name": "ProposalExecuted",
      "type": "event"
    },
    {
      "anonymous": false,
      "inputs": [
        {
          "indexed": true,
          "internalType": "uint256",
          "name": "proposalId",
          "type": "uint256"
        }
      ],
      "name": "ProposalRejected",
      "type": "event"
    },
    {
      "anonymous": false,
      "inputs": [
        {
          "indexed": true,
          "internalType": "bytes32",
          "name": "role",
          "type": "bytes32"
        },
        {
          "indexed": true,
          "internalType": "bytes32",
          "name": "previousAdminRole",
          "type": "bytes32"
        },
        {
          "indexed": true,
          "internalType": "bytes32",
          "name": "newAdminRole",
          "type": "bytes32"
        }
      ],
      "name": "RoleAdminChanged",
      "type": "event"
    },
    {
      "anonymous": false,
      "inputs": [
        {
          "indexed": true,
          "internalType": "bytes32",
          "name": "role",
          "type": "bytes32"
        },
        {
          "indexed": true,
          "internalType": "address",
          "name": "account",
          "type": "address"
        },
        {
          "indexed": true,
          "internalType": "address",
          "name": "sender",
          "type": "address"
        }
      ],
      "name": "RoleGranted",
      "type": "event"
    },
    {
      "anonymous": false,
      "inputs": [
        {
          "indexed": true,
          "internalType": "bytes32",
          "name": "role",
          "type": "bytes32"
        },
        {
          "indexed": true,
          "internalType": "address",
          "name": "account",
          "type": "address"
        },
        {
          "indexed": true,
          "internalType": "address",
          "name": "sender",
          "type": "address"
        }
      ],
      "name": "RoleRevoked",
      "type": "event"
    },
    {
      "anonymous": false,
      "inputs": [
        {
          "indexed": true,
          "internalType": "uint256",
          "name": "proposalId",
          "type": "uint256"
        },
        {
          "indexed": true,
          "internalType": "address",
          "name": "voter",
          "type": "address"
        },
        {
          "indexed": false,
          "internalType": "bool",
          "name": "support",
          "type": "bool"
        }
      ],
      "name": "VoteCast",
      "type": "event"
    },
    {
      "inputs": [],
      "name": "DEFAULT_ADMIN_ROLE",
      "outputs": [
        {
          "internalType": "bytes32",
          "name": "",
          "type": "bytes32"
        }
      ],
      "stateMutability": "view",
      "type": "function"
    },
    {
      "inputs": [],
      "name": "MEMBER_ROLE",
      "outputs": [
        {
          "internalType": "bytes32",
          "name": "",
          "type": "bytes32"
        }
      ],
      "stateMutability": "view",
      "type": "function"
    },
    {
      "inputs": [
        {
          "internalType": "address",
          "name": "member",
          "type": "address"
        }
      ],
      "name": "checkIsMember",
      "outputs": [
        {
          "internalType": "bool",
          "name": "",
          "type": "bool"
        }
      ],
      "stateMutability": "view",
      "type": "function"
    },
    {
      "inputs": [
        {
          "internalType": "string",
          "name": "_title",
          "type": "string"
        },
        {
          "internalType": "string",
          "name": "_description",
          "type": "string"
        },
        {
          "internalType": "uint256",
          "name": "deadline",
          "type": "uint256"
        }
      ],
      "name": "createProposal",
      "outputs": [],
      "stateMutability": "nonpayable",
      "type": "function"
    },
    {
      "inputs": [
        {
          "internalType": "uint256",
          "name": "proposalId",
          "type": "uint256"
        }
      ],
      "name": "executeProposal",
      "outputs": [],
      "stateMutability": "nonpayable",
      "type": "function"
    },
    {
      "inputs": [
        {
          "internalType": "uint256",
          "name": "proposalId",
          "type": "uint256"
        }
      ],
      "name": "getProposal",
      "outputs": [
        {
          "components": [
            {
              "internalType": "uint256",
              "name": "id",
              "type": "uint256"
            },
            {
              "internalType": "string",
              "name": "title",
              "type": "string"
            },
            {
              "internalType": "string",
              "name": "description",
              "type": "string"
            },
            {
              "internalType": "address",
              "name": "proposer",
              "type": "address"
            },
            {
              "internalType": "uint256",
              "name": "voteCount",
              "type": "uint256"
            },
            {
              "internalType": "uint256",
              "name": "yesCount",
              "type": "uint256"
            },
            {
              "internalType": "uint256",
              "name": "noCount",
              "type": "uint256"
            },
            {
              "internalType": "uint256",
              "name": "deadline",
              "type": "uint256"
            },
            {
              "internalType": "enum MiniDAO.ProposalStatus",
              "name": "status",
              "type": "uint8"
            }
          ],
          "internalType": "struct MiniDAO.Proposal",
          "name": "",
          "type": "tuple"
        }
      ],
      "stateMutability": "view",
      "type": "function"
    },
    {
      "inputs": [],
      "name": "getProposalCount",
      "outputs": [
        {
          "internalType": "uint256",
          "name": "",
          "type": "uint256"
        }
      ],
      "stateMutability": "view",
      "type": "function"
    },
    {
      "inputs": [
        {
          "internalType": "bytes32",
          "name": "role",
          "type": "bytes32"
        }
      ],
      "name": "getRoleAdmin",
      "outputs": [
        {
          "internalType": "bytes32",
          "name": "",
          "type": "bytes32"
        }
      ],
      "stateMutability": "view",
      "type": "function"
    },
    {
      "inputs": [
        {
          "internalType": "bytes32",
          "name": "role",
          "type": "bytes32"
        },
        {
          "internalType": "address",
          "name": "account",
          "type": "address"
        }
      ],
      "name": "grantRole",
      "outputs": [],
      "stateMutability": "nonpayable",
      "type": "function"
    },
    {
      "inputs": [
        {
          "internalType": "bytes32",
          "name": "role",
          "type": "bytes32"
        },
        {
          "internalType": "address",
          "name": "account",
          "type": "address"
        }
      ],
      "name": "hasRole",
      "outputs": [
        {
          "internalType": "bool",
          "name": "",
          "type": "bool"
        }
      ],
      "stateMutability": "view",
      "type": "function"
    },
    {
      "inputs": [
        {
          "internalType": "address",
          "name": "",
          "type": "address"
        },
        {
          "internalType": "uint256",
          "name": "",
          "type": "uint256"
        }
      ],
      "name": "hasVoted",
      "outputs": [
        {
          "internalType": "bool",
          "name": "",
          "type": "bool"
        }
      ],
      "stateMutability": "view",
      "type": "function"
    },
    {
      "inputs": [
        {
          "internalType": "uint256",
          "name": "",
          "type": "uint256"
        }
      ],
      "name": "proposals",
      "outputs": [
        {
          "internalType": "uint256",
          "name": "id",
          "type": "uint256"
        },
        {
          "internalType": "string",
          "name": "title",
          "type": "string"
        },
        {
          "internalType": "string",
          "name": "description",
          "type": "string"
        },
        {
          "internalType": "address",
          "name": "proposer",
          "type": "address"
        },
        {
          "internalType": "uint256",
          "name": "voteCount",
          "type": "uint256"
        },
        {
          "internalType": "uint256",
          "name": "yesCount",
          "type": "uint256"
        },
        {
          "internalType": "uint256",
          "name": "noCount",
          "type": "uint256"
        },
        {
          "internalType": "uint256",
          "name": "deadline",
          "type": "uint256"
        },
        {
          "internalType": "enum MiniDAO.ProposalStatus",
          "name": "status",
          "type": "uint8"
        }
      ],
      "stateMutability": "view",
      "type": "function"
    },
    {
      "inputs": [
        {
          "internalType": "address",
          "name": "member",
          "type": "address"
        }
      ],
      "name": "registerMember",
      "outputs": [],
      "stateMutability": "nonpayable",
      "type": "function"
    },
    {
      "inputs": [
        {
          "internalType": "uint256",
          "name": "proposalId",
          "type": "uint256"
        }
      ],
      "name": "rejectProposal",
      "outputs": [],
      "stateMutability": "nonpayable",
      "type": "function"
    },
    {
      "inputs": [
        {
          "internalType": "bytes32",
          "name": "role",
          "type": "bytes32"
        },
        {
          "internalType": "address",
          "name": "callerConfirmation",
          "type": "address"
        }
      ],
      "name": "renounceRole",
      "outputs": [],
      "stateMutability": "nonpayable",
      "type": "function"
    },
    {
      "inputs": [
        {
          "internalType": "bytes32",
          "name": "role",
          "type": "bytes32"
        },
        {
          "internalType": "address",
          "name": "account",
          "type": "address"
        }
      ],
      "name": "revokeRole",
      "outputs": [],
      "stateMutability": "nonpayable",
      "type": "function"
    },
    {
      "inputs": [
        {
          "internalType": "bytes4",
          "name": "interfaceId",
          "type": "bytes4"
        }
      ],
      "name": "supportsInterface",
      "outputs": [
        {
          "internalType": "bool",
          "name": "",
          "type": "bool"
        }
      ],
      "stateMutability": "view",
      "type": "function"
    },
    {
      "inputs": [
        {
          "internalType": "uint256",
          "name": "proposalId",
          "type": "uint256"
        },
        {
          "internalType": "bool",
          "name": "support",
          "type": "bool"
        }
      ],
      "name": "vote",
      "outputs": [],
      "stateMutability": "nonpayable",
      "type": "function"
    }
  ],
  "bytecode": "0x608060405234801561001057600080fd5b506100246000801b3361009e60201b60201c565b506100557f829b824e2329e205435d941c9f13baf578548505283d29261236d8e6596d46363361009e60201b60201c565b503373ffffffffffffffffffffffffffffffffffffffff167f92fabfa210df88d92c2f5a07ddd43a985b208d8b19b7a78ba1284aa4b287d86260405160405180910390a261020d565b60006100b0838361019b60201b60201c565b61019057600160008085815260200190815260200160002060000160008473ffffffffffffffffffffffffffffffffffffffff1673ffffffffffffffffffffffffffffffffffffffff16815260200190815260200160002060006101000a81548160ff02191690831515021790555061012d61020560201b60201c565b73ffffffffffffffffffffffffffffffffffffffff168273ffffffffffffffffffffffffffffffffffffffff16847f2f8788117e7eff1d82e926ec794901d17c78024a50270940304540a733656f0d60405160405180910390a460019050610195565b600090505b92915050565b600080600084815260200190815260200160002060000160008373ffffffffffffffffffffffffffffffffffffffff1673ffffffffffffffffffffffffffffffffffffffff16815260200190815260200160002060009054906101000a900460ff16905092915050565b600033905090565b6125358061021c6000396000f3fe608060405234801561001057600080fd5b50600436106101165760003560e01c806391d14854116100a2578063c08cc02d11610071578063c08cc02d1461030b578063c7f758a814610329578063c9d27afe14610359578063d547741f14610375578063fcb4888e1461039157610116565b806391d1485414610283578063a10f469e146102b3578063a217fddf146102d1578063bc28d878146102ef57610116565b806321d2a573116100e957806321d2a573146101bb578063248a9ca3146101eb5780632f2ff15d1461021b57806336568abe14610237578063425458251461025357610116565b8063013cf08b1461011b57806301ffc9a7146101535780630ce0ebf4146101835780630d61b5191461019f575b600080fd5b61013560048036038101906101309190611695565b6103ad565b60405161014a99989796959493929190611819565b60405180910390f35b61016d6004803603810190610168919061190c565b610548565b60405161017a9190611954565b60405180910390f35b61019d60048036038101906101989190611aa4565b6105c2565b005b6101b960048036038101906101b49190611695565b6107c8565b005b6101d560048036038101906101d09190611b5b565b6109a9565b6040516101e29190611954565b60405180910390f35b61020560048036038101906102009190611bbe565b6109dc565b6040516102129190611bfa565b60405180910390f35b61023560048036038101906102309190611c15565b6109fb565b005b610251600480360381019061024c9190611c15565b610a1d565b005b61026d60048036038101906102689190611c55565b610a98565b60405161027a9190611954565b60405180910390f35b61029d60048036038101906102989190611c15565b610ac7565b6040516102aa9190611954565b60405180910390f35b6102bb610b31565b6040516102c89190611bfa565b60405180910390f35b6102d9610b55565b6040516102e69190611bfa565b60405180910390f35b61030960048036038101906103049190611695565b610b5c565b005b610313610cf3565b6040516103209190611c95565b60405180910390f35b610343600480360381019061033e9190611695565b610d00565b6040516103509190611df3565b60405180910390f35b610373600480360381019061036e9190611e41565b610f6b565b005b61038f600480360381019061038a9190611c15565b61127d565b005b6103ab60048036038101906103a69190611b5b565b61129f565b005b600181815481106103bd57600080fd5b90600052602060002090600902016000915090508060000154908060010180546103e690611eb0565b80601f016020809104026020016040519081016040528092919081815260200182805461041290611eb0565b801561045f5780601f106104345761010080835404028352916020019161045f565b820191906000526020600020905b81548152906001019060200180831161044257829003601f168201915b50505050509080600201805461047490611eb0565b80601f01602080910402602001604051908101604052809291908181526020018280546104a090611eb0565b80156104ed5780601f106104c2576101008083540402835291602001916104ed565b820191906000526020600020905b8154815290600101906020018083116104d057829003601f168201915b5050505050908060030160009054906101000a900473ffffffffffffffffffffffffffffffffffffffff16908060040154908060050154908060060154908060070154908060080160009054906101000a900460ff16905089565b60007f7965db0b000000000000000000000000000000000000000000000000000000007bffffffffffffffffffffffffffffffffffffffffffffffffffffffff1916827bffffffffffffffffffffffffffffffffffffffffffffffffffffffff191614806105bb57506105ba8261131d565b5b9050919050565b7f829b824e2329e205435d941c9f13baf578548505283d29261236d8e6596d46366105ec81611387565b6000600180549050905060016040518061012001604052808381526020018781526020018681526020013373ffffffffffffffffffffffffffffffffffffffff16815260200160008152602001600081526020016000815260200185426106539190611f10565b81526020016000600281111561066c5761066b6117a2565b5b81525090806001815401808255809150506001900390600052602060002090600902016000909190919091506000820151816000015560208201518160010190816106b791906120f0565b5060408201518160020190816106cd91906120f0565b5060608201518160030160006101000a81548173ffffffffffffffffffffffffffffffffffffffff021916908373ffffffffffffffffffffffffffffffffffffffff1602179055506080820151816004015560a0820151816005015560c0820151816006015560e082015181600701556101008201518160080160006101000a81548160ff02191690836002811115610769576107686117a2565b5b021790555050503373ffffffffffffffffffffffffffffffffffffffff16817ff5aabab57cdd7d0e77da8679aa7b11fbcd0b690cafe5eb948e7a31af3cdf1aa687876040516107b99291906121c2565b60405180910390a35050505050565b6000801b6107d581611387565b600180549050821061081c576040517f08c379a000000000000000000000000000000000000000000000000000000000815260040161081390612245565b60405180910390fd5b60006001838154811061083257610831612265565b5b9060005260206000209060090201905060006002811115610856576108556117a2565b5b8160080160009054906101000a900460ff16600281111561087a576108796117a2565b5b146108ba576040517f08c379a00000000000000000000000000000000000000000000000000000000081526004016108b1906122e0565b60405180910390fd5b80600701544211610900576040517f08c379a00000000000000000000000000000000000000000000000000000000081526004016108f79061234c565b60405180910390fd5b806006015481600501541161094a576040517f08c379a0000000000000000000000000000000000000000000000000000000008152600401610941906123b8565b60405180910390fd5b60018160080160006101000a81548160ff02191690836002811115610972576109716117a2565b5b0217905550827f712ae1383f79ac853f8d882153778e0260ef8f03b504e2866e0593e04d2b291f60405160405180910390a2505050565b60006109d57f829b824e2329e205435d941c9f13baf578548505283d29261236d8e6596d463683610ac7565b9050919050565b6000806000838152602001908152602001600020600101549050919050565b610a04826109dc565b610a0d81611387565b610a17838361139b565b50505050565b610a2561148c565b73ffffffffffffffffffffffffffffffffffffffff168173ffffffffffffffffffffffffffffffffffffffff1614610a89576040517f6697b23200000000000000000000000000000000000000000000000000000000815260040160405180910390fd5b610a938282611494565b505050565b60026020528160005260406000206020528060005260406000206000915091509054906101000a900460ff1681565b600080600084815260200190815260200160002060000160008373ffffffffffffffffffffffffffffffffffffffff1673ffffffffffffffffffffffffffffffffffffffff16815260200190815260200160002060009054906101000a900460ff16905092915050565b7f829b824e2329e205435d941c9f13baf578548505283d29261236d8e6596d463681565b6000801b81565b6000801b610b6981611387565b6001805490508210610bb0576040517f08c379a0000000000000000000000000000000000000000000000000000000008152600401610ba790612245565b60405180910390fd5b600060018381548110610bc657610bc5612265565b5b9060005260206000209060090201905060006002811115610bea57610be96117a2565b5b8160080160009054906101000a900460ff166002811115610c0e57610c0d6117a2565b5b14610c4e576040517f08c379a0000000000000000000000000000000000000000000000000000000008152600401610c45906122e0565b60405180910390fd5b80600701544211610c94576040517f08c379a0000000000000000000000000000000000000000000000000000000008152600401610c8b9061234c565b60405180910390fd5b60028160080160006101000a81548160ff02191690836002811115610cbc57610cbb6117a2565b5b0217905550827fd92fba445edb3153b571e6df782d7a66fd0ce668519273670820ee3a86da0ef460405160405180910390a2505050565b6000600180549050905090565b610d086115d7565b6001805490508210610d4f576040517f08c379a0000000000000000000000000000000000000000000000000000000008152600401610d4690612245565b60405180910390fd5b60018281548110610d6357610d62612265565b5b90600052602060002090600902016040518061012001604052908160008201548152602001600182018054610d9790611eb0565b80601f0160208091040260200160405190810160405280929190818152602001828054610dc390611eb0565b8015610e105780601f10610de557610100808354040283529160200191610e10565b820191906000526020600020905b815481529060010190602001808311610df357829003601f168201915b50505050508152602001600282018054610e2990611eb0565b80601f0160208091040260200160405190810160405280929190818152602001828054610e5590611eb0565b8015610ea25780601f10610e7757610100808354040283529160200191610ea2565b820191906000526020600020905b815481529060010190602001808311610e8557829003601f168201915b505050505081526020016003820160009054906101000a900473ffffffffffffffffffffffffffffffffffffffff1673ffffffffffffffffffffffffffffffffffffffff1673ffffffffffffffffffffffffffffffffffffffff168152602001600482015481526020016005820154815260200160068201548152602001600782015481526020016008820160009054906101000a900460ff166002811115610f4e57610f4d6117a2565b5b6002811115610f6057610f5f6117a2565b5b815250509050919050565b7f829b824e2329e205435d941c9f13baf578548505283d29261236d8e6596d4636610f9581611387565b6001805490508310610fdc576040517f08c379a0000000000000000000000000000000000000000000000000000000008152600401610fd390612245565b60405180910390fd5b600260003373ffffffffffffffffffffffffffffffffffffffff1673ffffffffffffffffffffffffffffffffffffffff168152602001908152602001600020600084815260200190815260200160002060009054906101000a900460ff161561107a576040517f08c379a00000000000000000000000000000000000000000000000000000000081526004016110719061244a565b60405180910390fd5b6000600184815481106110905761108f612265565b5b9060005260206000209060090201905080600701544211156110e7576040517f08c379a00000000000000000000000000000000000000000000000000000000081526004016110de906124b6565b60405180910390fd5b600060028111156110fb576110fa6117a2565b5b8160080160009054906101000a900460ff16600281111561111f5761111e6117a2565b5b1461115f576040517f08c379a0000000000000000000000000000000000000000000000000000000008152600401611156906122e0565b60405180910390fd5b60018160040160008282546111749190611f10565b9250508190555082156111a25760018160050160008282546111969190611f10565b925050819055506111bf565b60018160060160008282546111b79190611f10565b925050819055505b6001600260003373ffffffffffffffffffffffffffffffffffffffff1673ffffffffffffffffffffffffffffffffffffffff168152602001908152602001600020600086815260200190815260200160002060006101000a81548160ff0219169083151502179055503373ffffffffffffffffffffffffffffffffffffffff16847fe71fcdac32df1877c1700e7bda2a03157e20993363a28fc35ac495cefc76e4d48560405161126f9190611954565b60405180910390a350505050565b611286826109dc565b61128f81611387565b6112998383611494565b50505050565b6000801b6112ac81611387565b6112d67f829b824e2329e205435d941c9f13baf578548505283d29261236d8e6596d4636836109fb565b8173ffffffffffffffffffffffffffffffffffffffff167f92fabfa210df88d92c2f5a07ddd43a985b208d8b19b7a78ba1284aa4b287d86260405160405180910390a25050565b60007f01ffc9a7000000000000000000000000000000000000000000000000000000007bffffffffffffffffffffffffffffffffffffffffffffffffffffffff1916827bffffffffffffffffffffffffffffffffffffffffffffffffffffffff1916149050919050565b6113988161139361148c565b611586565b50565b60006113a78383610ac7565b61148157600160008085815260200190815260200160002060000160008473ffffffffffffffffffffffffffffffffffffffff1673ffffffffffffffffffffffffffffffffffffffff16815260200190815260200160002060006101000a81548160ff02191690831515021790555061141e61148c565b73ffffffffffffffffffffffffffffffffffffffff168273ffffffffffffffffffffffffffffffffffffffff16847f2f8788117e7eff1d82e926ec794901d17c78024a50270940304540a733656f0d60405160405180910390a460019050611486565b600090505b92915050565b600033905090565b60006114a08383610ac7565b1561157b57600080600085815260200190815260200160002060000160008473ffffffffffffffffffffffffffffffffffffffff1673ffffffffffffffffffffffffffffffffffffffff16815260200190815260200160002060006101000a81548160ff02191690831515021790555061151861148c565b73ffffffffffffffffffffffffffffffffffffffff168273ffffffffffffffffffffffffffffffffffffffff16847ff6391f5c32d9c69d2a47ea670b442974b53935d1edc7fd64eb21e047a839171b60405160405180910390a460019050611580565b600090505b92915050565b6115908282610ac7565b6115d35780826040517fe2517d3f0000000000000000000000000000000000000000000000000000000081526004016115ca9291906124d6565b60405180910390fd5b5050565b604051806101200160405280600081526020016060815260200160608152602001600073ffffffffffffffffffffffffffffffffffffffff1681526020016000815260200160008152602001600081526020016000815260200160006002811115611645576116446117a2565b5b81525090565b6000604051905090565b600080fd5b600080fd5b6000819050919050565b6116728161165f565b811461167d57600080fd5b50565b60008135905061168f81611669565b92915050565b6000602082840312156116ab576116aa611655565b5b60006116b984828501611680565b91505092915050565b6116cb8161165f565b82525050565b600081519050919050565b600082825260208201905092915050565b60005b8381101561170b5780820151818401526020810190506116f0565b60008484015250505050565b6000601f19601f8301169050919050565b6000611733826116d1565b61173d81856116dc565b935061174d8185602086016116ed565b61175681611717565b840191505092915050565b600073ffffffffffffffffffffffffffffffffffffffff82169050919050565b600061178c82611761565b9050919050565b61179c81611781565b82525050565b7f4e487b7100000000000000000000000000000000000000000000000000000000600052602160045260246000fd5b600381106117e2576117e16117a2565b5b50565b60008190506117f3826117d1565b919050565b6000611803826117e5565b9050919050565b611813816117f8565b82525050565b60006101208201905061182f600083018c6116c2565b8181036020830152611841818b611728565b90508181036040830152611855818a611728565b90506118646060830189611793565b61187160808301886116c2565b61187e60a08301876116c2565b61188b60c08301866116c2565b61189860e08301856116c2565b6118a661010083018461180a565b9a9950505050505050505050565b60007fffffffff0000000000000000000000000000000000000000000000000000000082169050919050565b6118e9816118b4565b81146118f457600080fd5b50565b600081359050611906816118e0565b92915050565b60006020828403121561192257611921611655565b5b6000611930848285016118f7565b91505092915050565b60008115159050919050565b61194e81611939565b82525050565b60006020820190506119696000830184611945565b92915050565b600080fd5b600080fd5b7f4e487b7100000000000000000000000000000000000000000000000000000000600052604160045260246000fd5b6119b182611717565b810181811067ffffffffffffffff821117156119d0576119cf611979565b5b80604052505050565b60006119e361164b565b90506119ef82826119a8565b919050565b600067ffffffffffffffff821115611a0f57611a0e611979565b5b611a1882611717565b9050602081019050919050565b82818337600083830152505050565b6000611a47611a42846119f4565b6119d9565b905082815260208101848484011115611a6357611a62611974565b5b611a6e848285611a25565b509392505050565b600082601f830112611a8b57611a8a61196f565b5b8135611a9b848260208601611a34565b91505092915050565b600080600060608486031215611abd57611abc611655565b5b600084013567ffffffffffffffff811115611adb57611ada61165a565b5b611ae786828701611a76565b935050602084013567ffffffffffffffff811115611b0857611b0761165a565b5b611b1486828701611a76565b9250506040611b2586828701611680565b9150509250925092565b611b3881611781565b8114611b4357600080fd5b50565b600081359050611b5581611b2f565b92915050565b600060208284031215611b7157611b70611655565b5b6000611b7f84828501611b46565b91505092915050565b6000819050919050565b611b9b81611b88565b8114611ba657600080fd5b50565b600081359050611bb881611b92565b92915050565b600060208284031215611bd457611bd3611655565b5b6000611be284828501611ba9565b91505092915050565b611bf481611b88565b82525050565b6000602082019050611c0f6000830184611beb565b92915050565b60008060408385031215611c2c57611c2b611655565b5b6000611c3a85828601611ba9565b9250506020611c4b85828601611b46565b9150509250929050565b60008060408385031215611c6c57611c6b611655565b5b6000611c7a85828601611b46565b9250506020611c8b85828601611680565b9150509250929050565b6000602082019050611caa60008301846116c2565b92915050565b611cb98161165f565b82525050565b600082825260208201905092915050565b6000611cdb826116d1565b611ce58185611cbf565b9350611cf58185602086016116ed565b611cfe81611717565b840191505092915050565b611d1281611781565b82525050565b611d21816117f8565b82525050565b600061012083016000830151611d406000860182611cb0565b5060208301518482036020860152611d588282611cd0565b91505060408301518482036040860152611d728282611cd0565b9150506060830151611d876060860182611d09565b506080830151611d9a6080860182611cb0565b5060a0830151611dad60a0860182611cb0565b5060c0830151611dc060c0860182611cb0565b5060e0830151611dd360e0860182611cb0565b50610100830151611de8610100860182611d18565b508091505092915050565b60006020820190508181036000830152611e0d8184611d27565b905092915050565b611e1e81611939565b8114611e2957600080fd5b50565b600081359050611e3b81611e15565b92915050565b60008060408385031215611e5857611e57611655565b5b6000611e6685828601611680565b9250506020611e7785828601611e2c565b9150509250929050565b7f4e487b7100000000000000000000000000000000000000000000000000000000600052602260045260246000fd5b60006002820490506001821680611ec857607f821691505b602082108103611edb57611eda611e81565b5b50919050565b7f4e487b7100000000000000000000000000000000000000000000000000000000600052601160045260246000fd5b6000611f1b8261165f565b9150611f268361165f565b9250828201905080821115611f3e57611f3d611ee1565b5b92915050565b60008190508160005260206000209050919050565b60006020601f8301049050919050565b600082821b905092915050565b600060088302611fa67fffffffffffffffffffffffffffffffffffffffffffffffffffffffffffffffff82611f69565b611fb08683611f69565b95508019841693508086168417925050509392505050565b6000819050919050565b6000611fed611fe8611fe38461165f565b611fc8565b61165f565b9050919050565b6000819050919050565b61200783611fd2565b61201b61201382611ff4565b848454611f76565b825550505050565b600090565b612030612023565b61203b818484611ffe565b505050565b5b8181101561205f57612054600082612028565b600181019050612041565b5050565b601f8211156120a45761207581611f44565b61207e84611f59565b8101602085101561208d578190505b6120a161209985611f59565b830182612040565b50505b505050565b600082821c905092915050565b60006120c7600019846008026120a9565b1980831691505092915050565b60006120e083836120b6565b9150826002028217905092915050565b6120f9826116d1565b67ffffffffffffffff81111561211257612111611979565b5b61211c8254611eb0565b612127828285612063565b600060209050601f83116001811461215a5760008415612148578287015190505b61215285826120d4565b8655506121ba565b601f19841661216886611f44565b60005b828110156121905784890151825560018201915060208501945060208101905061216b565b868310156121ad57848901516121a9601f8916826120b6565b8355505b6001600288020188555050505b505050505050565b600060408201905081810360008301526121dc8185611728565b905081810360208301526121f08184611728565b90509392505050565b7f50726f706f73616c20646f6573206e6f74206578697374000000000000000000600082015250565b600061222f6017836116dc565b915061223a826121f9565b602082019050919050565b6000602082019050818103600083015261225e81612222565b9050919050565b7f4e487b7100000000000000000000000000000000000000000000000000000000600052603260045260246000fd5b7f50726f706f73616c206973206e6f742061637469766500000000000000000000600082015250565b60006122ca6016836116dc565b91506122d582612294565b602082019050919050565b600060208201905081810360008301526122f9816122bd565b9050919050565b7f566f74696e6720706572696f6420686173206e6f7420656e6465640000000000600082015250565b6000612336601b836116dc565b915061234182612300565b602082019050919050565b6000602082019050818103600083015261236581612329565b9050919050565b7f50726f706f73616c20646964206e6f7420706173730000000000000000000000600082015250565b60006123a26015836116dc565b91506123ad8261236c565b602082019050919050565b600060208201905081810360008301526123d181612395565b9050919050565b7f4d656d6265722068617320616c726561647920766f746564206f6e207468697360008201527f2070726f706f73616c0000000000000000000000000000000000000000000000602082015250565b60006124346029836116dc565b915061243f826123d8565b604082019050919050565b6000602082019050818103600083015261246381612427565b9050919050565b7f566f74696e6720706572696f642068617320656e646564000000000000000000600082015250565b60006124a06017836116dc565b91506124ab8261246a565b602082019050919050565b600060208201905081810360008301526124cf81612493565b9050919050565b60006040820190506124eb6000830185611793565b6124f86020830184611beb565b939250505056fea2646970667358221220d9f4eab344ba5c2bee5268b08d5d2b3780ebb2fe8e90e7c5fd30b7a56869b6ce64736f6c634300081c0033",
  "linkReferences": {},
  "deployedLinkReferences": {}
}